:060000000A128A110C280F
:10000800FE00030EF2000A08F3000A128A11F12D0D
:100018000A128A110F2883135F30FD000730FE0093
:100028001D30FF004F3084000A128A110E270A1271
:100038008A11DF01E001E101E201E301E401E501E8
:10004800E601E701E801E901F90183010A128A11D1
:100058002C2C831203132D088039B7002D08B20009
:100068003207BD00AC1F39283A283B283D143D080B
:1000780003193F2840284F283D0A031D44284528D6
:100088004D280030AD000030AC000030AB0000302F
:10009800AA00AC1757280030AD000030AC00003083
:1000A800AB000030AA0031088039B2003208B70628
:1000B8003108B2003207BC00B01F632864286528E5
:1000C8003C143C08031969286A2879283C0A031D4E
:1000D8006E286F2877280030B1000030B00000305B
:1000E800AF000030AE00B01781280030B1000030FA
:1000F800B0000030AF000030AE003C08031985287E
:1001080086288B283D08031D8A288B2894280030D0
:10011800AD000030AC000030AB000030AA00712BFD
:100128002A08F40030080A128A11E1260A128A11F4
:10013800750883120313C3007408C2004208B20092
:10014800B301B401B5013508BB003408BA0033085F
:10015800B9003208B8004308B200B301B401B501D0
:100168003508C1003408C0003308BF003208BE009B
:100178002B08F4002F080A128A11E1260A128A11A4
:10018800750883120313C3007408C2004208B20042
:10019800B301B401B5013208B807330803110318D5
:1001A800013E0319D828B907340803110318013E82
:1001B8000319DF28BA07350803110318013E03198C
:1001C800E628BB074308B200B301B401B501320801
:1001D800BE07330803110318013E0319F428BF07AB
:1001E800340803110318013E0319FB28C00735081A
:1001F80003110318013E03190229C1072C08F40052
:100208002E080A128A11E1260A128A117508831229
:100218000313C3007408C2004208B200B301B4015A
:10022800B5013208B807330803110318013E031952
:100238001E29B907340803110318013E031925299B
:10024800BA07350803110318013E03192C29BB0707
:100258004308B200B301B401B5013208BE07330840
:1002680003110318013E03193A29BF073408031183
:100278000318013E03194129C00735080311031863
:10028800013E03194829C1070830B2000310B80D10
:10029800B90DBA0DBB0DB20B4A292B08F4002E0874
:1002A8000A128A11E1260A128A11750883120313A9
:1002B800C3007408C2004208B2004308B300B40186
:1002C800B5013208B807330803110318013E0319B2
:1002D8006E29B907340803110318013E031975295B
:1002E800BA07350803110318013E03197C29BB0717
:1002F8002A08F4002F080A128A11E1260A128A1124
:10030800750883120313C3007408C2004208B200C0
:100318004308B300B401B5013208B8073308031124
:100328000318013E03199929B90734080311031862
:10033800013E0319A029BA07350803110318013E25
:100348000319A729BB070830B2000310B80DB90D6F
:10035800BA0DBB0DB20BA9292A08F4002E080A12FF
:100368008A11E1260A128A11750883120313C30041
:100378007408C2004208B2004308B300B401B501D2
:100388003208B807330803110318013E0319CD29B1
:10039800B907340803110318013E0319D429BA0711
:1003A800350803110318013E0319DB29BB072B0885
:1003B800F40030080A128A11E1260A128A11750817
:1003C80083120313C3007408C2004208B200430832
:1003D800B300B401B5013208BE073308031103188E
:1003E800013E0319F829BF07340803110318013E19
:1003F8000319FF29C007350803110318013E031923
:10040800062AC1072C08F4002F080A128A11E126CF
:100418000A128A11750883120313C3007408C200F4
:100428004208B2004308B300B401B5013208BE0760
:10043800330803110318013E0319232ABF073408A0
:1004480003110318013E03192A2AC00735080311AE
:100458000318013E0319312AC1072C08F40030089B
:100468000A128A11E1260A128A11750883120313E7
:10047800C3007408C2004208B2004308B300B401C4
:10048800B50108300310B20DB30DB40DB50DFF3E24
:10049800031D462A3208BE07330803110318013E1C
:1004A8000319572ABF07340803110318013E03191B
:1004B8005E2AC007350803110318013E0319652A8F
:1004C800C1073808B2003908B3003A08B4003B083D
:1004D800B50018300310B50CB40CB30CB20CFF3EC9
:1004E800031D6E2A3208BE07330803110318013EA4
:1004F80003197F2ABF07340803110318013E0319A3
:10050800862AC007350803110318013E03198D2AEE
:10051800C1070830B2000310B80DB90DBA0DBB0DF4
:10052800B20B8F2A3D083C07B200B301B30D320865
:10053800823EC20033080318013EFF3EC300C12AB1
:100548000130B2000310BE0DBF0DC00DC10DB20BBE
:10055800A62ABB1FB02AB12AB22A3E140130B20023
:100568000310B80DB90DBA0DBB0DB20BB42AFF308C
:10057800C2070318C30AFF30C307C01FC42AC52A0D
:10058800A42ABC01BB1FC92ACA2AE62AFF3038059B
:10059800B200FF303905B300FF303A05B4007F30B0
:1005A8003B05B50035083404330432040319DD2A49
:1005B800DE2AE12ABC01BC0AE62A3E1CE42AE52A16
:1005C800E62ADE2A3C080319EA2AEB2A1C2B01300A
:1005D800BE07003003180130BF0700300318013090
:1005E800C007003003180130C107411CFC2AFD2A4E
:1005F8001C2B3E08B2003F08B3004008B400410875
:10060800B5000130B600350DB50CB40CB30CB20C06
:10061800B60B072B3508C1003408C0003308BF00EB
:100628003208BE000130C2070318C30A0030C307EE
:100638004308803AFF0080307F02031D252BFF30DE
:100648004202031C282B292B342B7F3083120313DF
:10065800C1008030C0000030BF000030BE00652BF4
:10066800831203134308803AFF0080307F02031D82
:100678003F2B013042020318422B432B4F2B0030F3
:1006880083120313C1000030C0000030BF000030E7
:10069800BE00B701652B831203134208BD00FF306B
:1006A800BE05FF30BF057F30C0050030C1053D1CC9
:1006B8005E2B5F2B602BC0173D08B2000310320C75
:1006C800C1003708B2003208C1044108AD00400833
:1006D800AC003F08AB003E08AA00080083120313D1
:1006E800A40024080319792B7A2B8E2BF71F7D2B56
:1006F8007E2B8E2B7409A6007509A7007609A80021
:100708007709A900A60A0319A70A0319A80A031951
:10071800A90A962B7708A9007608A8007508A700EB
:100728007408A6007708760475047404031D9D2BCD
:100738009E2BA72B0030F7000030F6000030F500A4
:100748000030F4002B2C9630A500B72B0130A00008
:100758002008A50701300310A90CA80CA70CA60CAB
:10076800FF3E031DAF2BFE302905031DBC2BBD2BFF
:10077800AA2BD92B0130A0002008A5070130A60715
:10078800003003180130A707003003180130A8070C
:10079800003003180130A90701300310A90CA80C78
:1007A800A70CA60CFF3E031DD12BFF302905031D06
:1007B800DE2BDF2BBE2BEB2B0130A5020130A00076
:1007C8000310A60DA70DA80DA90DA00BE42BA81BBF
:1007D800EE2BEF2BF52B023025020318F42BF52B0B
:1007E800E02B2518F82BF92B012CFF30A605FF303C
:1007F800A7057F30A805FF30A9050310A50C25081B
:10080800A000A101A201A30118300310A00DA10DA1
:10081800A20DA30DFF3E031D092C2008A6042108E4
:10082800A7042208A8042308A904240803191D2CD6
:100838001E2C232CF71F212C222C232CA917290826
:10084800F7002808F6002708F5002608F400080035
:100858008316031387017F308312031387000A125C
:100868008A1195260A128A118312031387179F1477
:100878006408F4006508F5000030F51BFF30F60049
:10088800F70001300A128A1172230A128A117708B6
:1008980083120313B1007608B0007508AF0074081E
:1008A800AE003F30AD00FA30AC00FA30AB00FB30A0
:1008B800AA000A128A112D200A128A118312031320
:1008C8002D08C7002C08C6002B08C5002A08C4003C
:1008D8000A128A11B5240A128A11831203134508D1
:1008E800E3004408E2006308A5006208A4000A12B5
:1008F8008A1146260A128A118312031367084F3E8B
:10090800840083130008DF0068084F3E8400000855
:10091800E00069084F3E84000008E1007F30CE0007
:100928004E0887059F18992C9A2C382C1F0CCE003E
:100938004E0C0F39003A031DA22CA32CA82C1F081B
:10094800C33904389F00AA2CC3309F054130831255
:100958000313CE00CE0BAE2CB12C382C0A128A1100
:100968000C28031083120313460D470DCD004D08C4
:10097800031DBF2CC02CC92C0030C7000030C60096
:100988000030C5000030C4002C2D4408C8004508BC
:10099800C9004608CA004708CB001F300310CB0C1B
:1009A800CA0CC90CC80CFF3E031DD22C4808CC0049
:1009B800C617FF30C405FF30C505FF30C605003037
:1009C800C7059630CD02CD1FEA2CEB2C052D4D081E
:1009D800803A973E0318F12CF22CF32CC02C0130EE
:1009E8000310C70CC60CC50CC40CFF3E031DF42C29
:1009F8000130C8004808CD07031D032D042DF32C32
:100A08001C2D20304D02031C0A2D0B2D172DC02C38
:100A18000130C8000310C40DC50DC60DC70DC80BA5
:100A28000E2D0130CD024D08031D1B2D1C2D0C2D44
:100A38004C080319202D212D2C2DC409C509C609E0
:100A4800C709C40A0319C50A0319C60A0319C70A3C
:100A5800080083120313A101F51F332D342D3B2DFC
:100A6800F409F509F40A0319F50AA101A10AF71F07
:100A78003E2D3F2D482DF609F709F60A0319F70A06
:100A88000130F8007808A106A201A30174087504D2
:100A980003194F2D502D872DA001A00A5E2D01307E
:100AA8000310F40DF50DFF3E031D542D0130F80021
:100AB8007808A007F51F612D622D532D0130031012
:100AC800A20DA30DFF3E031D632D75087702031DBC
:100AD8006F2D74087602031C722D732D7A2D7408FD
:100AE800F6027508031CF703F702221401300310FD
:100AF800F50CF40CFF3E031D7B2D0130A002031DF5
:100B0800862D872D622D210803198B2D8C2D912D73
:100B1800A209A309A20A0319A30A2308F5002208B7
:100B2800F400080083120313A101F71F9C2D9D2DCB
:100B3800A42DF609F709F60A0319F70AA101A10A73
:100B4800F51FA72DA82DAD2DF409F509F40A0319F1
:100B5800F50A740875040319B22DB32DE22DA0010E
:100B6800A00AC12D01300310F40DF50DFF3E031D41
:100B7800B72D0130F8007808A007F51FC42DC52D42
:100B8800B62D75087702031DCB2D74087602031C59
:100B9800CE2DCF2DD52D7408F6027508031CF7034A
:100BA800F70201300310F50CF40CFF3E031DD62D9F
:100BB8000130A002031DE12DE22DC52D21080319E6
:100BC800E62DE72DEC2DF609F709F60A0319F70AC1
:100BD8007708F5007608F4000800831203130C1F49
:100BE800F62DF72D142E1F0CF000700C0F39003A5B
:100BF800031DFF2D002E032E1E088800132E1F0C28
:100C0800F000700C0F39013A031D0B2E0C2E132E19
:100C18001E08F000F1017008E4007108E5000C13EB
:100C28000B1D172E182E3F2E89017908031D1D2E26
:100C38001E2E252E6108870001308900F901F90A66
:100C48003C2E7903031D292E2A2E312E6008870099
:100C5800023089000230F9003C2E02307906031D6B
:100C6800362E372E3C2E5F08870004308900F901A4
:100C7800D83081000B1173088A00720E8300FE0EB3
:100C88007E0E09006430F4000030F500831203136F
:100C98002508F7002408F6000A128A112D250A12E1
:100CA8008A11740883120313E9006430F4000030D9
:100CB800F5002508F7002408F6000A128A1196257F
:100CC8000A128A11740883120313E6000A30F4002A
:100CD8000030F5006608A600A7012608F6002708D8
:100CE800F7000A128A112D250A128A117408831234
:100CF8000313E8000A30F4000030F5006608A60087
:100D0800A7012608F6002708F7000A128A11962577
:100D18000A128A11740883120313E6006608E700B2
:100D280008000330831603178800890103308316EF
:100D38000313850086018701880189018312031343
:100D480085018601870188018901703083160313A4
:100D58008F040F1481128111011581140114D830E8
:100D68008312031381000B118B168B170B17831635
:100D780003130C17831203130C131F083F39803811
:100D88009F00C3309F050330F5009730F400F40B43
:100D9800CB2EF50BCB2ED02E831603139F131F12C9
:100DA8009F12831203131F144230F400F40BDA2E3F
:100DB8000000831203130C13080083120313A4000A
:100DC800A001A1017408F600F7017608A2007708CF
:100DD800A300241CF02EF12EF72E2208A0070318DA
:100DE800A10A2308A10701300310A20DA30DFF3E9D
:100DF800031DF82E0310A40C2408031D042F052F2F
:100E0800ED2E2108F5002008F40008007E088A006D
:100E18007F0882000A128A110A270A128A118000A2
:100E2800840A04087D0603190034FF0A0319FE0A20
:100E38000E2F3F3406345B344F3466346D347D34C2
:100E480007347F346734493440340134483401343A
:020E5800013463
:08400000FF3FFF3FFF3FFF3FC0
:04400E00D420FF3F7C
:00000001FF
