:060000000A128A110C280F
:10000800FE00030EF1000A08F2000A128A116028A5
:100018000A128A110F2883010A128A119828831656
:100028000317880189018316031386018701880154
:1000380083120313850186018701880170308316B6
:1000480003138F040F1481128111011581140114F7
:10005800D8308312031381000B118B160B178316EC
:1000680003130C17831203130C138B170330831617
:1000780003178800831203131F083F3980389F0035
:10008800C3309F050330F4009730F300F30B4A2880
:10009800F40B4A284F28831603139F131F129F122D
:1000A800831203131F144230F300F30B5928000086
:1000B800831203130C1308000B1D632864286D2892
:1000C8000130F0007008831203138707D8308100CD
:1000D8000B11831203130C1F7228732891281F0C0D
:1000E800F000700C0F39003A031D7B287C28832808
:1000F8001E0888001F08C33904389F0090281F0C69
:10010800F000700C0F39013A031D8B288C289028B9
:100118001E088600C3309F050C1372088A00710EF2
:100128008300FE0E7E0E09000A128A1113200A129D
:100138008A11831203139F141A30F600F830F50061
:10014800F50BA428F60BA42800009D280A128A1192
:020158000C2871
:08400000FF3FFF3FFF3FFF3FC0
:04400E00D420FF3F7C
:00000001FF
