:060000000A128A110C280F
:10000800FE00030EF0000A08F1000A128A114C28BB
:100018000A128A110F2883010A128A1163280330F1
:100028008316031788008901831603138801831236
:100038000313880103308316031385008312031307
:1000480085017030831603138F040F1481128111F8
:10005800011581140114D8308312031381000B1188
:100068008B160B17831603130C17831203130C1329
:100078008B17831603139F131F129F1283120313E8
:100088001F083F3980389F00C3309F051F140800A0
:10009800831203130C1F5128522855281E08880064
:1000A8000C130B1D582859285C280B11D8308100D7
:1000B80071088A00700E8300FE0E7E0E09000A1277
:1000C8008A1113200A128A118230F300DD30F200FF
:1000D800F20B6C28F30B6C287128831203139F14FE
:0800E80068280A128A110C2895
:08400000FF3FFF3FFF3FFF3FC0
:04400E00D420FF3F7C
:00000001FF
