:060000000A128A110C280F
:10000800FE00030EF1000A08F2000A128A11702895
:100018000A128A110F2883010A128A114E288316A0
:100028000317880189018316031387018801860154
:1000380070308F040F14811281110115811401147D
:10004800D8308312031381000B118B168B170130E4
:100058008316031788000130831603138500831263
:1000680003131F083F3980389F00C3309F050330B2
:10007800F4009730F300F30B3F28F40B3F28442893
:10008800831603139F131F129F12831203131F1447
:100098000C1308000A128A1113200A128A118312FB
:1000A80003139F140C1F59285A2856281E08F500B8
:1000B800F6017508F7007608F800770888001A3006
:1000C800F600F830F500F50B6728F60B67280000F6
:1000D80053280A128A110C280B1D732874287D28AE
:1000E8000130F0007008831203138707D8308100AD
:1000F8000B1172088A00710E8300FE0E7E0E090035
:08400000FF3FFF3FFF3FFF3FC0
:04400E00D420FF3F7C
:00000001FF
